:020000040001F9
:10B00000782E002015B101002FB1010031B10100EF
:10B010000000000000000000000000000000000030
:10B0200000000000000000000000000033B101003B
:10B03000000000000000000035B1010037B1010040
:10B0400039B1010039B1010039B1010039B1010054
:10B0500039B101000000000021B2010039B1010046
:10B0600039B1010039B1010039B1010039B1010034
:10B0700039B1010039B1010039B1010039B1010024
:10B0800039B10100B9B3010039B1010039B1010092
:10B0900085B6010039B101008DB6010039B101005A
:10B0A00039B1010039B101000000000000000000CA
:10B0B0000000000000000000000000000000000090
:10B0C0000348854600F09AF80048004715C701007C
:10B0D000782E0020401E00BF00BF00BF00BF00BF91
:10B0E00000BF00BF00BF00BF00BF00BF00BFF1D165
:10B0F00070470000401E00BF00BF00BF00BF00BF80
:10B1000000BF00BF00BF00BF00BF00BF00BFF1D144
:10B11000704700000321094802680A43026008489A
:10B1200002680A4302600748804707480047FEE775
:10B13000FEE7FEE7FEE7FEE7FEE70000240500402D
:10B1400054050040ADB60100C1B0010030B50B465A
:10B15000014600202022012409E00D46D5409D42F1
:10B1600005D31D469540491B254695404019154677
:10B17000521E002DF1DC30BD70B50024254600289C
:10B1800001DA01244042002901DA01254942FFF792
:10B19000DDFFAC4200D04042002C00D0494270BDDF
:10B1A00003460B439B0703D009E008C9121F08C0E0
:10B1B000042AFAD203E00B780370401C491C521E8B
:10B1C000F9D27047D2B201E00270401C491EFBD296
:10B1D00070470022F6E710B513460A4604461946A2
:10B1E000FFF7F0FF204610BD03460A780270401CAE
:10B1F000491C002AF9D1184670470000064C012569
:10B20000064E05E0E36807CC2B430C3C984710340E
:10B21000B442F7D3FFF758FFD8D20100F8D20100AB
:10B22000F0B50025FF248BB0013401262F4601958F
:10B23000204601F0EBFC002808D047484068304227
:10B2400004D046480021201835430160241D7600B3
:10B250007F1CA4B2042FEBD3FF207D3001F0D6FC7D
:10B26000002807D03E4800210160400705433D48C3
:10B27000006901903C4C280712D0012700262F427C
:10B280000AD03A48B200111808690969C004C00E12
:10B290008903A258890F90477F00761C042EEED3B5
:10B2A000002D57DA00200590401E4DE0A1194031D5
:10B2B00008788506AD0E42B2521C39D00121A94052
:10B2C000089A0091114233D080090390284600F07B
:10B2D000A3FF800020580490002802D1039803287F
:10B2E00026D103980099032802D1059808430590B8
:10B2F0001F4AA80080180068019A8003800F11423D
:10B3000002D0022802D013E0032811D103990329A7
:10B3100007D102281CD00221284601F05FFC7F1CC7
:10B32000FFB20498002803D0049A28460399904756
:10B33000761C042EBAD3002F0CD00A48006901995C
:10B34000884207D00190059800273E460890ADE757
:10B350000321E1E70BB0F0BD006300400060004056
:10B360007C61004000050050881D00200065004001
:10B37000000700508307FF22DB0E9A408907090E61
:10B38000994000280BDA0007000F083883080848A6
:10B390009B001818C36993430B43C361704783082C
:10B3A00004489B001B1818689043084318607047B6
:10B3B00000ED00E000E400E010B506490020086060
:10B3C00048608860C860034940390860486001F0FF
:10B3D00081FE10BD40110140FFB5114F0446387881
:10B3E00081B01D461646002801D100F0AFF97869FA
:10B3F000A04211D918200A4960434118002C06D0F8
:10B400000298CE640D6588640020886548650A98B6
:10B41000C865002005B0F0BD0020C043FAE7000079
:10B42000FC250020FFB5114F0446387881B01D4639
:10B430001646002801D100F089F93869A04211D9D7
:10B4400018200A4960434118002C06D00298CE61AA
:10B450000D6288610020886248620A98C8620020F4
:10B4600005B0F0BD0020C043FAE70000FC25002035
:10B4700070B5074B0646187814460D46002801D1D2
:10B4800000F064F922462946304600F003F870BD0A
:10B49000FC25002070B50E46182148431349144678
:10B4A0004518E86A1835002804D001280FD0022872
:10B4B00005D113E0284600F07FF9A04201D2002414
:10B4C00011E022463146284600F0A1FA0BE028465A
:10B4D00000F072F9A042F4D20446F2E73146284661
:10B4E00000F065FA0446204670BD0000FC250020EF
:10B4F000F7B598B007A80290402000250495039066
:10B5000018980C46059506902178641C002977D080
:10B51000252907D002A800F02BFA05980028F3DAB5
:10B520001BB0F0BD01220021022713460826207817
:10B5300023281BD02B2816D02D2802D0302806D146
:10B5400001E0194300E03943641C002AEFD10022D6
:10B5500020780346303B0A2B0AD20A235A4312189A
:10B56000303A641CF4E704200143EDE73143EBE794
:10B570000023C7B22E2F0AD1641C20780746303F23
:10B580000A2F04D20A277B431B18303BF4E76C28B0
:10B590000DD068280BD0702852D00BDC25285AD04B
:10B5A00058282ED063280CD0642858D110E0207879
:10B5B000641CECE7732832D0752817D078284ED158
:10B5C0001FE01A981A9A0068011D1160017843E083
:10B5D0001A981A9F0068061D3E600068019100924B
:10B5E00001460A2202A800F0F2F838E01A981A9FE1
:10B5F0000068061D3E600068009201910A2209E081
:10B600002FE01A981A9F0068061D3E60006800929D
:10B6100001911022014602A800F03EF91FE01A989D
:10B620001A9A0068011D116006683178761C00299D
:10B6300015D002A800F09CF905980028F5DA0EE074
:10B640001A981A9A00680823011D116001681022D7
:10B6500000960195DFE7252102A800F089F9641C16
:10B660005BE70598002800DC5AE70498002804D01E
:10B67000024607A91898FFF7FBFE049905984018A1
:10B6800005904DE710B501F0BBFC10BD10B50648A4
:10B690004068002805D08047002801D000F046FB14
:10B6A00010BD00F0ADFE10BDC018002010B500F0B8
:10B6B000E3FE002805D01F491D484860C8131E49F5
:10B6C00088611E48018CC9B201290BD1828C1207F6
:10B6D00008D1028D1206120F042A03D1828D1206A0
:10B6E000120F0AD0012921D1818C09071ED1018DA9
:10B6F0000906090F0A2904D007E0114A01219160C7
:10B70000F5E7828D1206120F05D00D290ED1808D1E
:10B710000006000F0AD10B480168012904D00A492C
:10B72000016001680129FCD1C021416110BD000008
:10B73000DFFF07C000050040006C0040C00F00F0B4
:10B740000006004000EC06407593000010B5124C56
:10B7500002202061606111A0A0611348E061012016
:10B76000800220620020A06260620CA1A1642146D8
:10B77000E0621039E16410212165A0656065E06533
:10B780000AA1E01DFFF730FD09A12046FFF72CFDBF
:10B790002020A07110BD0000FC2500205465726DB2
:10B7A000696E616C00000000EC21002052545400CE
:10B7B00053454747455200000269C1688A4203D891
:10B7C0008068401A801800E0501A401E7047FFB58C
:10B7D00083B00E4670420D9F0C9C0090002900DB48
:10B7E0000846012502E0FFF7C7FC6D1C0599884259
:10B7F000F9DA0698A84200D90546002C04D0002E9C
:10B8000001DB780700D5641EB80702D5069800282A
:10B8100010D0F8070ED1002C0CD0A5420AD220215E
:10B82000641E039800F0A4F80398C0680028F2DAB8
:10B8300007B0F0BD0398C0680028F9DB002E02DADB
:10B840002D21009E02E0780707D52B21039800F0F8
:10B850008FF80398C0680028EADBB807800F022839
:10B8600010D1069800280DD1002C0BD0A54209D28A
:10B870003021641E039800F07BF80398C06800280C
:10B88000F2DAD5E7019700943146069B059A0398B2
:10B8900000F002F8CCE70000FFB581B001261F469A
:10B8A00034460A9D029802E0FFF750FC641C03999D
:10B8B0008842F9D2A74200D93C460B98C00718D15C
:10B8C000002D16D00B98800701D5002F02D0202024
:10B8D00000900CE03020FBE76D1E0099019800F00D
:10B8E00047F80198C06800283DDB002D01D0AC422C
:10B8F000F2D30198C068002835DB012F01D97F1EE3
:10B9000006E031460298FFF721FC0399884202D3F2
:10B9100003984643F1E7154F31460298FFF716FCAE
:10B920000146029A7143511A0291395C019800F064
:10B930001FF80198C068002805DB30460399FFF71F
:10B9400005FC0600E8D10B98C0070CD0002D0AD0EA
:10B95000AC4208D220216D1E019800F009F8019830
:10B96000C0680028F2DA05B0F0BD0000C8D20100BE
:10B9700010B5044680686368421C934205D323686F
:10B980001954A260E068401CE060A26860688242CE
:10B9900009D121682069FFF76BFDA168884203D0B7
:10B9A0000020C043E06010BD0020A06010BDF7B5CE
:10B9B000064682B000200090F46817463069A04225
:10B9C00001D9051B02E0B168201A0D1AB0686D1E7E
:10B9D000001BA84200D80546BD4200D33D46706812
:10B9E0002A4600190399FFF7DBFB00987F1B4019DB
:10B9F00000900398641940190390B068A04200D1E8
:10BA00000024F460002FD9D1009805B0F0BDF7B53F
:10BA1000C668174604468068851B6068BD4206D923
:10BA200080190199FFF7BCFBF019E060FEBD2A46C2
:10BA300080190199FFF7B4FB01987E1B411932462A
:10BA40006068FFF7ADFBE660FEBD02E008C8121FAC
:10BA500008C1002AFAD170477047002001E001C1F7
:10BA6000121F002AFBD17047F7B584B00025168855
:10BA700007461580406B1446002813D003780598BC
:10BA8000032E51D30221017021881122491C89B251
:10BA9000218042542188491C89B221804354208846
:10BAA000401C2080386B00281DD005462088059951
:10BAB00002461232B24237D811220A54208810228C
:10BAC000401C80B220800A542088401C20800F2017
:10BAD0002A5C2388401ECA54228840B2521C22800D
:10BAE0000028F5DA0025384620300290807B0028B7
:10BAF00006D033462246059900F0E2FC050014D139
:10BB00000298407B002806D032462146059800F076
:10BB1000CBFA050009D1B878002823D005988646CD
:10BB20002088001DB04202D90C2007B0F0BD684645
:10BB300079DF0028F9D121880320724650542088EB
:10BB40001921401C80B22080115420887146401C6D
:10BB500080B2208041186846008801F0FBFA2188F5
:10BB600040182080F878002817D0218803230A463F
:10BB7000FB56C91C0598B142D6D8022181542188B0
:10BB80000122491C89B2218042542188491C89B272
:10BB9000218043542088401C20807868002817D0DA
:10BBA00021880023C3560A46C91C0598B142BBD858
:10BBB0000221815421880A22491C89B221804254E1
:10BBC0002188491C89B2218043542088401C208050
:10BBD000388900280AD000943846019606220221AE
:10BBE0000830059B01F0F9FA05009ED1388A00283B
:10BBF0000AD0009438460196072203211030059B95
:10BC000001F0EBFA050090D1388B00280AD000949F
:10BC100038460196152214211830059B01F0DDFAF3
:10BC2000050082D1386A002806D03346224605999D
:10BC300000F04EFB0500D8D1786A002806D03346C4
:10BC40002246059900F0CEFD0500CED10298007B7A
:10BC5000002807D0334622463846059901F0AEF851
:10BC60000500C2D13878002807D03346224638462E
:10BC7000059900F0EBFD0500B7D1284655E7000017
:10BC800030B591B00425112000F0B8FF15495922B4
:10BC90000875881E407848756846028710911721FC
:10BCA00081873821FFF795FA002468460470C57033
:10BCB0000EA809902146684600F0C2F9002801D07C
:10BCC00000F034F818210848FFF783FA06480321EA
:10BCD000017044601921047249010182448211B04B
:10BCE00030BD000072180020701D002010B50B2020
:10BCF000C04377DF002801D000F018F8034873DF55
:10BD0000002801D000F012F810BD0000701D0020C6
:10BD1000BFF34F8F04490348C860BFF34F8F00BF84
:10BD2000FDE700000400FA0500ED00E00EB500217B
:10BD3000029000916A4601910148FFF7E9FF0EBDAC
:10BD40000140000070B50F4B05241D785E78AE42AF
:10BD500015D01D781C789E88B44201DA641C00E07E
:10BD600000241C705C88DE686C43A41904609B6826
:10BD7000E800C418A4880C801858002410602046DD
:10BD800070BD0000B0180020F7B5244C82B0608868
:10BD90000E4681423FD800256846214F057000F0CD
:10BDA0001BF922786078A188884201DA401C00E003
:10BDB0000020C0B2904204D16846007800F02AF911
:10BDC00027E065786078884201DA401C00E00020B6
:10BDD00060706846007800F01DF9BD4219D0A06877
:10BDE000EF000499C151029900290CD0002E0AD00D
:10BDF000608832464543E0682818FFF7D1F9A0680B
:10BE00003818868002E0002138188180002005B0B3
:10BE1000F0BD0420FBE70920F9E70000B01800207E
:10BE2000FFFF00000EB504E068468188029A009882
:10BE3000904702AA01A96846FFF784FF0028F3D0C3
:10BE40000EBD000030B5CB0008339DB2930700242F
:10BE5000002B01D0072030BD044B9A605219DA60E4
:10BE60005C701C7058809980002030BDB018002094
:10BE7000094B9B68002B07D0002A07D0002805D06B
:10BE80000068037C002B03D0082070470720704710
:10BE900041744261002070478C18002010B50446A0
:10BEA000082902D00020FFF741FF21686068884719
:10BEB00010BD00001CB501910090034A082168469E
:10BEC000FFF762FF1CBD00009DBE0100FFB590079B
:10BED000002581B014460E46002832D11B4F002C9D
:10BEE00031D000F0BDFE04987861032038703346ED
:10BEF0001821224600204B43BC601834C100891829
:10BF00000D704D708E704C601C19401C0328F5DBC1
:10BF1000FD607D7001240E48BD702405046003217E
:10BF20001420FFF727FA0B4804600B4C0198A0601F
:10BF300003211120FFF71EFA60683861002005B068
:10BF4000F0BD0720FBE7BD60FBE700008C18002078
:10BF500080E200E000E100E000150140FEB50D4682
:10BF60001B4917468968044600292AD0002C28D08E
:10BF7000052D01D20720FEBD6069002821D0607C1C
:10BF8000012820D0002601F0EBF8C00010490190F4
:10BF900089684018694601F00DF9002815D0012183
:10BFA00001700C49446049680830E2C008490198B2
:10BFB0008968411868460078487001F063F80020ED
:10BFC000FEBD0820FEBD2E46DDE70420FEBD0000BC
:10BFD0008C1800200015014030B5EFF3108172B6C7
:10BFE000094A54680123002C04D00370002900D1B1
:10BFF00062B630BD5360054B1D68054C2540156089
:10C000001C6000220270F1E7D418002080E100E0FB
:10C01000FC06FFBC08494A68002A0CD000280AD157
:10C02000EFF3108072B60A68044B1A6000224A606F
:10C03000002800D162B67047D418002000E100E06B
:10C04000F0B50C4693B01F216A46118007260027E1
:10C050009180002809D0C17849070DD502A9FFF7C2
:10C0600003FD002809D102AD01E000251780002C56
:10C070000ED0E078002802D0304613B0F0BD01AAFF
:10C080000AA92046FFF7F0FC0028F6D10AAA02E030
:10C0900068460022878068468088C3B26846008868
:10C0A000C1B2284672DFE8E77CB5054608880C4631
:10C0B0000930904201D90C207CBD684671DF002810
:10C0C000FAD121880820685420881B21401C80B2A6
:10C0D00020802954208800A9401C80B2208040196B
:10C0E00006220131FFF75CF820886946801D80B286
:10C0F00020800978002900D0012129542088401C83
:10C10000208000207CBD000070B50446112000F0A6
:10C1100075FD002801D0012500E00025112C3DD13E
:10C120001F4800F0E3FB112000F068FDA84235D164
:10C13000112000F063FD7D251A49ED0000280878E4
:10C1400014D000282AD000200870132000F0D8FC5A
:10C1500074DF002801D0FFF7E9FD0124284600F034
:10C16000C5FB641CE4B2062CF8D313E0002815D1FB
:10C1700001200870132000F017FD74DF002801D0A3
:10C18000FFF7D4FD0124284600F0B0FB641CE4B2A4
:10C19000062CF8D3FFF774FDFFF7A8FD70BD000073
:10C1A000881300007018002010B50068FFF7ACFF7E
:10C1B00010BD00000022D243830004490428CA5065
:10C1C00002D308182030027770470000881D002035
:10C1D000F0B50025ED43002A02D00023042601E03B
:10C1E000042308260B4C04E09F00E7597F1C04D071
:10C1F0005B1CB342F8D32846F0BD26185DB220364A
:10C2000035709E00A151002AF5D1E1182031087740
:10C21000F1E70000881D0020024909182020085677
:10C2200070470000881D0020F8B52348C168002928
:10C230003ED00E6821494C680769C078E11B0D02A9
:10C240002D0AED1C002814D101201D4A0004506065
:10C250001B4A403A50601B49400008601A49086078
:10C260001A49012008602F20FEF744FF12490120DF
:10C27000C870B54200D23546E81900020F4B000ADB
:10C28000403318600D4A5168001B091B0902090A56
:10C290000002000AC91C814209D9506818602F2089
:10C2A000FEF728FF01200749400480390860F8BDE7
:10C2B00000F0D6FCF8BD00008C18002000150140ED
:10C2C0004013014080E200E000E100E00010014086
:10C2D000F8B50646108814468446801D0D469842DF
:10C2E00001D90C20F8BD32880720062AFAD3192775
:10C2F000FF01184BBA4201D99A42F3D1718806293D
:10C30000F0D3B94201D99942ECD19A4203D0994273
:10C3100001D08A42E6D8052160462954208812219E
:10C32000401C80B2208029542088401C80B220808C
:10C330004119308800F00EFF2188401880B220801B
:10C340004119708800F006FF2188401820800020E5
:10C35000F8BD0000FFFF000010B50E4900234A7829
:10C360008C78A24212D0521CD2B24A70022A00D15A
:10C370004B704A78074B920018339A58026008694C
:10C3800010180002000A0861012010BD036000209F
:10C3900010BD00008C18002013B5034A0421684624
:10C3A000FFF7F2FC1CBD0000A9C101001CB500F0A4
:10C3B0007DFB002801D0FFF7B9FC0F4C69462068CF
:10C3C0000090132000F0A4FB002801D0FFF7AEFC82
:10C3D000132000F095FBE0680190084A01A91120A4
:10C3E00000F012FB002801D0FFF7A0FC0121112072
:10C3F00000F0BAFA1CBD0000B8D2010099C30100D8
:10C40000F8B51C4C2078002833D02069002807D0CC
:10C410000026E068002805D00025002E04D011E099
:10C420000126F6E70125F8E7684652DF052804D023
:10C43000002804D0FFF77AFC04E0012602E021691D
:10C4400000988847002D10D1608869460880A06850
:10C4500061DF052804D0002804D0FFF767FC04E062
:10C46000012502E0E168A0688847002EDCD0002D9D
:10C47000D3D0F8BDC01800201048018CC9B20129E2
:10C4800017D1818C090714D1018D09060A0F03D138
:10C49000828D1206120F0ED0090F012903D1828D51
:10C4A0001206120F07D0032903D1808D0006000F5A
:10C4B00001D000207047012070470000C00F00F03D
:10C4C00030B51588EC1C9C4201D90C2030BD0224EB
:10C4D0004C5513881C255B1C9BB21380CD541388CC
:10C4E0005B1C9BB21380012807D0022807D00328C9
:10C4F00007D0042807D0072030BD002004E0012029
:10C5000002E0CC5401E00320C8541088401C108085
:10C51000002030BDF8B52C49C8680A690C780F793D
:10C5200089688646944600913EE00099E2005518DD
:10C530002A7836E0182353436968521CC918AB782F
:10C54000D2B2934200D100220B78022B02D0032BEF
:10C5500027D123E04E680346014603E0B14204D0F0
:10C560000B46C96900291CD0F8E7002919D08B4275
:10C5700008D1C069002805D1144F0126BE600026ED
:10C58000B44601270E68C969D961002909D00B6832
:10C590009B190B6005E00174C06900E000210028D0
:10C5A000F9D169789142C5D12146641EE4B20029CF
:10C5B000BBD1054962460A61C8600F71704501D060
:10C5C0000120F8BD0020F8BD8C18002000100140AB
:10C5D000F8B5044631480026C168009107784EE05E
:10C5E0002E48F90080680D1843E0002C02D0204648
:10C5F000E4691FE02878182141436A68401CC0B2F2
:10C6000051182870AA78904200D12E700A78486894
:10C61000012A30D1027C002A2DD18A684260CA6882
:10C6200082600A69C260496981611C4909790029EF
:10C6300000D04660194943680A699C46991A090264
:10C64000174B090A994202D28268891807E06146AD
:10C65000511A09028268090A8A4202D9511A0160F4
:10C6600000E006604660012186600174C66100F04A
:10C6700011FD002CB9D1287869788842BAD13846A2
:10C680007F1EFFB20028ABD10448C16800988142E8
:10C6900001D00120F8BD0020F8BD00008C1800205A
:10C6A000FFFF7F0038B50E4C2078002801D0002015
:10C6B00038BD0125AB020B4A0BA100200095FEF707
:10C6C000B1FE002807D11023094A0AA10090FEF705
:10C6D00083FE002801D0082038BD2570E7E7000060
:10C6E000AC180020DB1D00204E6F726D616C0000E5
:10C6F000DB210020496E7075740000000FB408B58E
:10C7000004A900916A460399FEF7F2FE01B008BC45
:10C7100004B0184786B0FFF749FE2C4A0A210820CA
:10C72000FFF790FB002801D0FFF700FB284C002307
:10C73000A06805904822274905A800F01FFC0028A2
:10C7400001D0FFF7F3FA00216A46084600F0FEFB2D
:10C75000002801D0FFF7EAFA1F4800F0A3FA0028EA
:10C7600001D0FFF7E3FA684600F070FB002801D023
:10C77000FFF7DCFAFFF784FA164A184B48320B2110
:10C780000020FFF7A3FB002801D0FFF7CFFA1048E5
:10C79000134A0121001DFFF76BFB002801D0FFF7B2
:10C7A000C5FA0F21002249046068FFF7D7FB002873
:10C7B00001D0FFF7BBFAFFF799FAFFF733FB48DF29
:10C7C0000028FAD0FFF7B2FAF7E70000C01C0020FB
:10C7D000B8D201000019002070180020B5BE010079
:10C7E000C1CF010070B5144682880E4605462088E8
:10C7F000111D4118921C994201D8FE2A01D90C2022
:10C8000070BD521C32542088FF21401C80B2208011
:10C8100031542088401C80B220808119288800F083
:10C8200099FC2188401880B22080AA88002A09D06B
:10C83000A968002908D08019FEF7B2FC2088A988D1
:10C8400040182080002070BD072070BDF8B50F464D
:10C85000017814460546012902D16878002806D0DF
:10C860002088821C9A422DD8012902D006E0072098
:10C87000F8BD69784118891C994223D8181A801E7E
:10C8800086B2684606802188B81C081869467DDF94
:10C890000028EDD12878022805D169460988B142DF
:10C8A00001D809210AE00821012805D16878B042A1
:10C8B00002D86A46108001E0684606806846008813
:10C8C000FE2801D90C20F8BD2288401CB8542088CD
:10C8D000401C80B22080395420886946401C20804A
:10C8E0000988401820800020F8BD000031B5054CB3
:10C8F00004E0401E00902046FEF7ECFB0098002864
:10C90000F7D138BDE70300008207D30EFF229A401B
:10C910008907090E10B5994000280BDA03071B0F91
:10C92000083B9C080C4BA400E318DC6994430C43BF
:10C93000DC6107E08408094BA400E41823689343F2
:10C940000B432360C106C90E0120884004490860DA
:10C950000449086010BD000000ED00E000E400E0C4
:10C9600080E200E000E100E0F3B581B00F460198FD
:10C9700000F056F9012400281E4E019817D0FFF749
:10C980004BFC80192030007F8009032802D0012849
:10C9900006D007E01848006901998C40204201D177
:10C9A000022100E00321019800F018F9FEBD00F01B
:10C9B00043F90028FAD00198FFF72EFC05468100C4
:10C9C000C81D0E4AF93089180A6980B222430A61EB
:10C9D0000B49401800210160002FE7D00198FFF7B4
:10C9E0001BFC800030580028E0D00648AC40446072
:10C9F000FEBD0000881D00200005005000650040BD
:10CA00000060004000630040FEB5044623480E4627
:10CA10000019202141560027C8171346401C01D099
:10CA2000082738E0F27819462046FFF7D1FB054683
:10CA3000401C2FD0B078002807D01948A100091851
:10CA4000086802229043086007E0002173782046BE
:10CA500000910A46019100F0AFF8F078002810D05C
:10CA60001048AA001018317802690F4B1A40026171
:10CA7000E206D20C8907890B0A4301690A43026165
:10CA800009E00648327840192030017F92011143B5
:10CA9000017700E004273846FEBD0000881D002015
:10CAA0000007005000650040FFE0FCFF70B5124D2C
:10CAB0002879002801D0082070BD0F490020403996
:10CAC000421E0B182033401CC0B21A702028F8D325
:10CAD00000242046FFF76EFB641CE4B2082CF8D358
:10CAE00003210620FFF710FF01200449C00748601A
:10CAF00001202871002070BDC81D00200063004087
:10CB0000012181400148C1607047000000050050CC
:10CB1000FEB5044620480D460019002620308157F6
:10CB2000491C01D0082633E0A97800291DD0012234
:10CB300000212046FFF74CFB411C14D0830017480E
:10CB40002A78181869780369154F3B400361036917
:10CB5000E706FF0C9207920BC907C90A3B430A4339
:10CB60001343036104E0042612E00121C94301706C
:10CB70006A780120A0400B49012A0BD0C86000212F
:10CB800000910B46012201912046114600F014F855
:10CB90003046FEBD8860F2E7881D00200065004039
:10CBA000FFE0ECFF00050050012181400148816059
:10CBB000704700000005005030B552000A4399004C
:10CBC000039C0A432102049D0A4329040A430249A3
:10CBD00080004018026030BD000700508200064807
:10CBE0001018026803231B049A43026002680904B8
:10CBF0000A430260704700000007005002490969BB
:10CC0000C140C807C00F70470005005003494018D5
:10CC10000068012800D0002070470000006000403C
:10CC20000449081820214156042901DB01207047DE
:10CC300000207047881D0020044908182021415613
:10CC4000042901D20120704700207047881D002070
:10CC5000012252075110886B496B41438818704775
:10CC600070B501240B49600408600B4940108860CE
:10CC7000094940398860094D6C602F20FEF73AFA67
:10CC8000AC60074D00242F202C61FEF733FAEC70C6
:10CC900070BD000080E100E0401301400010014041
:10CCA0008C18002038B5044609480090A0420DD0E9
:10CCB000FFF7CEFF0546234606A10020009AFFF7A6
:10CCC0001DFD2A1B10A10020FFF718FD002038BD14
:10CCD0007018002052414D20535441525420414479
:10CCE000445220307825782073686F756C64206218
:10CCF000652061646A757374656420746F20307890
:10CD000025780D0A0000000052414D2053495A4534
:10CD10002073686F756C642062652061646A757346
:10CD200074656420746F2030782578200D0A000027
:10CD300010B50121202805DA1A4A8140114201D19B
:10CD4000194810BD8107C90E002808DA0207120F22
:10CD5000083A9208154B9200D218D26904E0820872
:10CD6000134B9200D2181268CA401106890F042989
:10CD700011D200290FD002290DD00E494C68C306EC
:10CD8000DB0E01229A40002C08D0400980000B588D
:10CD900013430B5004E00448401C10BD06480260D9
:10CDA000002010BDFC06FFBC0120000000ED00E0EB
:10CDB00000E400E0D418002000E100E0FFB50746E1
:10CDC000806A81B0144600283DD0002538462030C6
:10CDD000009033E00C20B96A68430E18B088801CBC
:10CDE000FE2802D90C2005B0F0BD22880299401C13
:10CDF000885420881622401C80B2208002990A5450
:10CE00002088401C80B2208002994118308800F0B0
:10CE1000A1F92188401880B22080B288002A0AD067
:10CE2000B16800290FD0029BC018FEF7B9F920881D
:10CE3000B188401820806D1C0098EDB2007BA8429C
:10CE4000C8D80020CFE70720CDE700007CB5044616
:10CE5000144801900246009013A10020FFF74EFCF9
:10CE60006946204660DF04460199009888420ED04A
:10CE7000FFF7EEFE054615A10020009AFFF73EFCE5
:10CE8000009821A12A1A0020FFF738FC07E0002CA7
:10CE900005D0224626A10020FFF730FCFEE7204601
:10CEA0007CBD00007018002073645F626C655F6574
:10CEB0006E61626C653A2052414D20535441525488
:10CEC00020617420307825780D0A000073645F6259
:10CED0006C655F656E61626C653A206170705F724F
:10CEE000616D5F626173652073686F756C64206249
:10CEF000652061646A757374656420746F2030788E
:10CF000025780D0A0000000072616D2073697A6552
:10CF10002073686F756C642062652061646A757344
:10CF200074656420746F2030782578200D0A000025
:10CF300073645F626C655F656E61626C653A206503
:10CF400072726F7220307825780D0A0070B50E4627
:10CF50000546144614211046FEF73BF90120002136
:10CF600020802161217326726572002D00D0A0728D
:10CF7000002070BD10B5FEF7CBFE10BDFFB581B02F
:10CF80001D4616460C46FFF78DFB002C01D0A0076E
:10CF900002D0072005B0F0BD2046074C0127A06055
:10CFA000668065600549019810DF0028F2D127707E
:10CFB0001620FFF7BDFEEDE7C018002075CF010079
:10CFC00070B50D492020487074DF002801D0FEF7AD
:10CFD000ADFE01247D25ED002846FFF787FC641C8B
:10CFE000E4B2062CF8D3FEF74BFE044873DF0028AA
:10CFF00001D0FEF79BFE70BD70180020701D002050
:10D00000FEB51F4C00252769E06802906846FFF7CF
:10D01000A3F90190FFF77EFA06460198002822D076
:10D0200000230098E16817E00E680A46864202D99C
:10D03000301A086012E0801BF31800261660D668CC
:10D04000D169B446002E07D0FE183602360A566063
:10D0500066469660D56115460029E5D12846E1600F
:10D06000FFF7B6FA06E02846FFF7B2FA002801D12A
:10D07000002E02D00298FFF7D7F800202071FEBDE5
:10D080008C1800200120024900050860704700004C
:10D0900000E200E010B50E4BD968002906D0026806
:10D0A0000C68A24204D8A21A0A60C161D86010BDFF
:10D0B0000B4604E00B46C969121B002904D00C681A
:10D0C0009442F7D3A41A0C600260C161D86110BD0C
:10D0D0008C180020F8B51D4DEC68002C34D01C488D
:10D0E000002740682969401A0602360A2068B042C3
:10D0F00018D8361AC7192246107CE46900280FD0C8
:10D10000002010746B69002B07D091695069984713
:10D11000002805D0FEF70AFE02E0516990698847B1
:10D12000002CE3D16978A878814206D1401CC0B2B6
:10D13000A870022801D10020A87004490006800DC3
:10D1400018310F50FFF79EFFF8BD00008C1800202B
:10D15000001501400870000A487002207047000066
:10D16000EFF30580C005C00D1AD0103840B200287A
:10D1700008DA0107090F083989080C4A890089185B
:10D18000C96904E081080A4A89008918096880078A
:10D19000C00EC1400806800F012803D0032803D029
:10D1A00002207047002070470120704700ED00E02A
:10D1B00000E400E042788378521CD2B2934200D15E
:10D1C00000220378934201D1002070470A70416821
:10D1D00040781822504308187047FFB583B01646B0
:10D1E0000C9D0D9C1F46022200950194039800F0AF
:10D1F0000CF8002807D13B461022314600950194D7
:10D20000039800F002F807B0F0BDFFB583B0074601
:10D2100000200C9C8646268805463AE07868A900DE
:10D2200042181188684681805188C1800022694671
:10D2300001A865DF002839D1684601780598814248
:10D2400026D17046002801D0002200E0022220886A
:10D25000891842180D998A4227D8714600290AD1A7
:10D26000401C80B22080069A049911542088401CEA
:10D27000208001208646218806980A18694601A860
:10D2800065DF002812D1694620880978401820807F
:10D290006D1C3888A842C1DC704600280AD020885E
:10D2A000801B401E80B2FF2802D90C2007B0F0BDC1
:10D2B000069988550020F9E702010100E0180020D6
:10D2C00001000007030000013031323334353637B6
:10D2D0003839414243444546F8D2010070180020D5
:10D2E000700000004ABA010068D30100E018002075
:10D2F000981500005ABA0100000002154E4B465521
:10D3000053544D495350495045CDDEEFC200000003
:10D31000C30000000000000000000000000000004A
:10D3200000000000000000000000000000000000FD
:10D3300000000000000000000000000000000000ED
:10D3400000000000000000000000000000000000DD
:10D3500000000000000000000000000000000000CD
:08D36000000000000024F400AD
:040000050001B0C185
:00000001FF
